:100000000C94F6000C9427010C9427010C94270102
:100010000C9427010C9427010C9427010C942701C0
:100020000C9427010C9427010C9427010C942701B0
:100030000C9427010C9427010C9427010C942701A0
:100040000C9427010C9427010C9427010C94270190
:100050000C9427010C9427010C9427010C94DE05C5
:100060000C9427010C949C070C9470080C942701A5
:100070000C9427010C9427010C9427010C94270160
:100080000C9427010C9427010C9427010C94270150
:100090000C94C9070C94AF080C9427010C94270109
:1000A0000C9427010C9427010C9427010C94270130
:1000B0000C9427010C9427010C9427010C94270120
:1000C0000C9427010C9427010C9427010C94F6073B
:1000D0000C94EE080C9427010C9423080C942D0921
:1000E0000C9427010000090A02080B0C0D070603F7
:1000F00004010000000000000000000000000000FB
:1001000000000000000000000000000000000000EF
:1001100011100F00000000000000000000000000AF
:100120000000000000000000000001021020200874
:100130000810204010204080020102010804020142
:1001400001020408102040808040201008040201B1
:10015000800402018040201008040201080402010A
:100160000102040810204080010204081020408091
:1001700005050505070508080808020202020A0A23
:100180000808040404040101010101010101030341
:10019000030303030303040707070C0C0C0C0C0CEC
:1001A0000C0C0202020206060606060606060B0BE9
:1001B0000B0B0B0B0B0B00002200250028002B0063
:1001C0002E003100340002010000050108010B017E
:1001D00000002100240027002A002D0030003300F9
:1001E00001010000040107010A01EC0911241FBEEE
:1001F000CFEFD1E2DEBFCDBF00E00CBF12E0A0E048
:10020000B2E0E4EBF6E100E00BBF02C007900D9214
:10021000A031B107D9F714E0A0E1B2E001C01D920E
:10022000A73BB107E1F711E0CCEED1E000E006C05A
:1002300022970109FE010BBF0E94540BCA3ED10751
:1002400080E00807A9F70E94DA060C94580B0C947A
:1002500000008EBD0DB407FEFDCF8EB50895CF9280
:10026000DF92EF92FF926C0160E08AE10E94A705A5
:1002700060E08BE10E94A70560E089E10E94A7058C
:10028000EE24D7FCE094FE2CC701B6010E94520672
:1002900061E08AE10E94A70561E08BE10E94A70569
:1002A00061E089E10E94A705C701B601FF90EF90C8
:1002B000DF90CF900C945206CF92DF92EF92FF9294
:1002C0000F931F93CF93DF9380911002811118C079
:1002D00064E670E087E00E94270464E670E083E053
:1002E0000E94270464E670E085E00E94270464E62B
:1002F00070E086E00E94270461E08AE10E94A70581
:100300008091110281113AC088E792E00E94E706CD
:10031000181619060CF072C162E370E080E090E0FC
:100320000E94520688E792E00E9416077C0188E747
:1003300092E00E9416078C0188E792E00E9416075F
:10034000EC0188E792E00E941607109210022FEF4E
:10035000E216F10409F052C10F3F110509F04EC138
:10036000CF3FD10509F04AC18F3F910509F046C141
:1003700081E08093110260E089E12EC088E792E07D
:100380000E94E706181619060CF038C164E670E002
:1003900080E090E00E94520688E792E00E941607F3
:1003A0007C0188E792E00E9416078C0188E792E0C2
:1003B0000E941607EC0188E792E00E9416076C0184
:1003C00088E792E00E941607E114F10479F481E0D5
:1003D0008093100260E08AE1DF91CF911F910F912D
:1003E000FF90EF90DF90CF900C94A70521E0E216EC
:1003F000F10419F41092100201C124E0E216F10494
:1004000009F06EC0809110028111F8C061E08AE1AC
:100410000E94A70561E08BE10E94A70561E089E1E8
:100420000E94A70564EF71E080E090E00E94520610
:100430008AEF90E00E942F018AEF90E00E942F0146
:100440008AEF90E00E942F0164E970E087E00E944B
:10045000270468EE73E080E090E00E94520664E6B4
:1004600070E087E00E94270464E970E083E00E9466
:10047000270468EE73E080E090E00E94520664E694
:1004800070E083E00E94270464E970E085E00E9448
:10049000270468EE73E080E090E00E94520664E674
:1004A00070E085E00E94270464E970E086E00E9425
:1004B000270468EE73E080E090E00E94520664E654
:1004C00070E086E00E94270484EF91E0DF91CF91F5
:1004D0001F910F91FF90EF90DF90CF900C942F0120
:1004E00022E0E216F10409F067C00115110531F5AB
:1004F000C130D10581F46FEF70E08DE30E942704D5
:100500006FEF70E08CE30E9427046FEF70E08AE3E6
:100510000E94270448C0CD2B09F070C060E070E055
:100520008DE30E94270460E070E08CE30E942704C2
:1005300060E070E08AE30E9427043AC001301105B0
:1005400069F4C130D10519F46FEF70E005C0CD2B0F
:1005500009F054C060E070E08DE346C00230110540
:1005600069F4C130D10519F46FEF70E005C0CD2BEF
:1005700009F044C060E070E08CE336C0043011053F
:1005800061F4C130D10519F46FEF70E004C0CD2BD8
:10059000A9F560E070E08AE327C00330110571F52A
:1005A000C130D10519F46FEF70E004C0CD2B31F5E7
:1005B00060E070E08BE318C023E0E216F104F1F490
:1005C0000C0D1D1D0C0F1D1F080F191FB80187E012
:1005D0000E942704B80183E00E942704B80185E047
:1005E0000E942704B80186E0DF91CF911F910F91FF
:1005F000FF90EF90DF90CF900C942704DF91CF9184
:100600001F910F91FF90EF90DF90CF9008950F937F
:100610001F93CF93DF931F92CDB7DEB7082F162F0E
:1006200060E0842F49830E94A705802F0E94290142
:10063000812F0E94290161E04981842F0F90DF9171
:10064000CF911F910F910C94A70545E350E060E80E
:100650008BE60E94070366E970E080E090E00E946C
:10066000520645E350E063E08BE60E94070366E92B
:1006700070E080E090E00E94520645E350E060E1C7
:100680008AE60E94070366E970E080E090E00E943D
:10069000520645E350E060E089E10E94070366E905
:1006A00070E080E090E00E94520645E350E063E095
:1006B0008AE10E94070366E970E080E090E00E9412
:1006C000520645E350E060E08BE10E94070366E9D3
:1006D00070E080E090E00E94520645E350E060E068
:1006E0008CE10E94070366E970E080E090E00C94E2
:1006F000520661E08BE10E946F0561E08AE10E9491
:100700006F0561E089E10E946F0561E08BE10E9465
:10071000A70561E089E10E94A70561E08AE10E94E6
:10072000A70561E08CE00E946F0561E08BE00E940C
:100730006F0561E088E00E946F0561E087E00E943C
:100740006F0561E086E00E946F0561E083E00E9432
:100750006F0561E082E00E946F0561E085E00E9424
:100760006F0561E088E20E946F0561E088E20E9407
:10077000A70540E855E260E070E088E792E00E945B
:100780006C0964E670E087E00E94270464E670E08C
:1007900083E00E94270464E670E085E00E9427045D
:1007A00064E670E086E00E9427040E94EC0381E08A
:1007B0000E94190481E00E940B0480E00E9414044E
:1007C00064E670E080E090E00E94520661E085E31C
:1007D0000E946F050C94250361E084E30E946F057D
:1007E00061E083E30E946F0561E085E30E946F058D
:1007F00060E084E30E94A70560E083E30E94A70510
:1008000061E085E30E94A7058CB580618CBD8CB545
:1008100080648CBD0895811103C08CB5806202C0D4
:100820008CB58F7D8CBD08959CB5937F982B9CBD16
:1008300008952CB5982F93702C7F922B9CBD9DB55D
:1008400082FB882780F99E7F982B9DBD08951F937A
:10085000CF93DF93182FEB0161E00E946F05209783
:1008600011F460E004C0CF3FD10539F461E0812F7D
:10087000DF91CF911F910C94A705E12FF0E0EC518F
:10088000FF4FE491E93009F460C098F4E430C9F115
:1008900038F4E23039F158F5E13009F0ABC01DC051
:1008A000E73009F440C008F046C0E63009F0A2C0C5
:1008B00032C0ED3009F476C030F4EB3009F459C0A1
:1008C00008F066C04CC0E03109F480C0E13109F4A1
:1008D00087C0EF3009F08EC06FC084B5806884BDDA
:1008E000C7BD8DC084B5806284BDC8BD88C08091FD
:1008F0008000806880938000D0938900C093880036
:100900007EC080918000806280938000D0938B00B5
:10091000C0938A0074C08091B00080688093B0005A
:10092000C093B3006CC08091B00080628093B0002F
:10093000C093B40064C08091900080688093900060
:10094000D0939900C09398005AC080919000806223
:1009500080939000D0939B00C0939A0050C08091E8
:100960009000886080939000D0939D00C0939C007D
:1009700046C08091A00080688093A0008091A00074
:100980008F7B8093A000D093A900C093A80037C0AC
:100990008091A00080628093A000D093AB00C093B0
:1009A000AA002DC08091A00088608093A000D09301
:1009B000AD00C093AC0023C080912001806880937B
:1009C0002001D0932901C093280119C080912001F2
:1009D000806280932001D0932B01C0932A010FC025
:1009E00080912001886080932001D0932D01C093D5
:1009F0002C0105C0C038D1050CF038CF32CFDF91C3
:100A0000CF911F910895893009F443C088F4843050
:100A100029F138F4823059F1E8F4813009F05EC0F0
:100A200023C0873061F188F5863009F057C023C0B4
:100A30008D3009F440C020F48B30A9F1C0F52DC0F1
:100A4000803109F442C0813109F443C08F3009F08C
:100A500045C037C0809180008F7703C080918000AF
:100A60008F7D80938000089584B58F7702C084B510
:100A70008F7D84BD08958091B0008F7703C08091F1
:100A8000B0008F7D8093B0000895809190008F77A3
:100A900007C0809190008F7D03C080919000877F78
:100AA0008093900008958091A0008F7707C0809177
:100AB000A0008F7D03C08091A000877F8093A0005D
:100AC0000895809120018F7707C0809120018F7D4C
:100AD00003C080912001877F809320010895CF93E8
:100AE000DF9390E0FC01E65DFE4F4491FC01E0598C
:100AF000FE4F8491882341F190E0880F991FFC01FB
:100B0000E053FE4F25913491D9018A549E4FFC0148
:100B100085919491C82FD92F9FB7F8948C9161112A
:100B200006C0409584238C938881842308C062305A
:100B300041F4242F209582238C938881842B8883F1
:100B400002C0842B8C939FBFDF91CF9108950F93A8
:100B50001F93CF93DF931F92CDB7DEB7282F30E0DE
:100B6000F901EC51FF4F8491F901E65DFE4F1491BC
:100B7000F901E059FE4F04910023D1F0882321F0C0
:100B800069830E9403056981E02FF0E0EE0FFF1FEB
:100B9000EA54FE4F85919491DC019FB7F8948C91B3
:100BA000611103C01095812301C0812B8C939FBFDD
:100BB0000F90DF91CF911F910F9108951F920F9287
:100BC0000FB60F9211242F933F938F939F93AF9360
:100BD000BF938091120290911302A0911402B091E0
:100BE000150230911A02232F2D5F2D3720F4019624
:100BF000A11DB11D05C0232F2A570296A11DB11DAD
:100C000020931A028093120290931302A09314026D
:100C1000B09315028091160290911702A0911802CC
:100C2000B09119020196A11DB11D809316029093F7
:100C30001702A0931802B0931902BF91AF919F9130
:100C40008F913F912F910F900FBE0F901F9018958D
:100C50000F931F939FB7F8940091160210911702FB
:100C6000209118023091190286B5A89B06C08F3FCB
:100C700021F00F5F1F4F2F4F3F4F9FBF322F212F6C
:100C8000102F0027080F111D211D311D42E0000FFC
:100C9000111F221F331F4A95D1F7B801C9011F91B7
:100CA0000F910895CF92DF92EF92FF92CF93DF934F
:100CB0006B017C010E942806EB010EC00E942806F1
:100CC0006C1B7D0B683E734038F081E0C81AD10878
:100CD000E108F108C851DC4FC114D104E104F1046A
:100CE00069F7DF91CF91FF90EF90DF90CF9008955B
:100CF000789484B5826084BD84B5816084BD85B5F7
:100D0000826085BD85B5816085BDEEE6F0E08081BD
:100D100081608083E1E8F0E01082808182608083DE
:100D2000808181608083E0E8F0E080818160808361
:100D3000E1EBF0E0808184608083E0EBF0E0808193
:100D400081608083E1E9F0E080818260808380813E
:100D500081608083E0E9F0E0808181608083E1EA66
:100D6000F0E0808182608083808181608083E0EA1E
:100D7000F0E0808181608083E1E2F1E08081826047
:100D80008083808181608083E0E2F1E08081816006
:100D90008083EAE7F0E080818460808380818260E4
:100DA00080838081816080838081806880831092CD
:100DB000C10008950E9478060E947903CFE4D8E02C
:100DC0000E945C012097E1F30E944F08F9CFFC01DB
:100DD00084859585FC01E05CFF4F20813181FC0119
:100DE000EE5BFF4F80819181281B390B2F733327D6
:100DF000C9010895FC0184859585FC01E05CFF4FE5
:100E000040815181FC01EE5BFF4F2081318142170F
:100E1000530741F00190F081E02DE80FF91F208188
:100E200030E002C02FEF3FEFC9010895FC01848537
:100E30009585FC01E05CFF4F40815181FC01EE5B38
:100E4000FF4F208131814217530781F0A081B1818A
:100E5000A80FB91F8C91208131812F5F3F4F2F73D5
:100E6000332731832083282F30E002C02FEF3FEF5C
:100E7000C9010895FC0186859785FC01E05CFF4F60
:100E8000DC01AE5BBF4F408151812D913C911197A8
:100E900042175307C1F70895CF93DF93FC0186856E
:100EA0009785DC01A05CBF4F2D913C9111972F5F7E
:100EB0003F4F2F733327EC01CE5BDF4F48815981C1
:100EC00024173507D9F30D90BC91A02DA80FB91F99
:100ED0006C93A685B785A05CBF4F11963C932E936B
:100EE000A689B7892C9181E090E0058C02C0880F1B
:100EF000991F0A94E2F7282B2C9381E090E0DF9170
:100F0000CF910895FB01E05CFF4F208131812F5F7D
:100F10003F4F2F733327DB01AE5BBF4F4D915C9189
:100F20002417350739F0A081B181A60FB71F8C9324
:100F300031832083089508951F920F920FB60F9268
:100F400011240BB60F922F933F934F935F936F93A0
:100F50007F938F939F93AF93BF93EF93FF93809172
:100F6000C60063E774E00E948207FF91EF91BF9192
:100F7000AF919F918F917F916F915F914F913F9131
:100F80002F910F900BBE0F900FBE0F901F901895D2
:100F900008951F920F920FB60F9211240BB60F9265
:100FA0002F933F934F935F936F937F938F939F9371
:100FB000AF93BF93EF93FF938091CE006BEE73E0FE
:100FC0000E948207FF91EF91BF91AF919F918F9106
:100FD0007F916F915F914F913F912F910F900BBE39
:100FE0000F900FBE0F901F90189508951F920F92AB
:100FF0000FB60F9211240BB60F922F933F934F937E
:101000005F936F937F938F939F93AF93BF93EF9370
:10101000FF938091D60063E673E00E948207FF9100
:10102000EF91BF91AF919F918F917F916F915F9160
:101030004F913F912F910F900BBE0F900FBE0F90CD
:101040001F90189508951F920F920FB60F921124BA
:101050000BB60F922F933F934F935F936F937F93B2
:101060008F939F93AF93BF93EF93FF93809136013C
:101070006BED72E00E948207FF91EF91BF91AF91FB
:101080009F918F917F916F915F914F913F912F91A0
:101090000F900BBE0F900FBE0F901F90189588E712
:1010A00092E00E94E706892B11F00E949B0789E5D8
:1010B00092E00E94E706892B11F00E94C8078AE39C
:1010C00092E00E94E706892B11F00E94F5078BE160
:1010D00092E00E94E706892B11F00C9422080895F3
:1010E0001F920F920FB60F9211240BB60F922F93EF
:1010F0003F938F939F93EF93FF9320916F043091D1
:10110000700480917104909172042817390731F4AA
:101110008091C1008F7D8093C10014C0E091710463
:10112000F0917204E15DFB4F2081809171049091F8
:10113000720401968F7399279093720480937104BF
:101140002093C600FF91EF919F918F913F912F9136
:101150000F900BBE0F900FBE0F901F9018951F920F
:101160000F920FB60F9211240BB60F922F933F934D
:101170008F939F93EF93FF932091E7033091E803C0
:101180008091E9039091EA032817390731F480919F
:10119000C9008F7D8093C90014C0E091E903F091EC
:1011A000EA03E955FC4F20818091E9039091EA031D
:1011B00001968F7399279093EA038093E903209314
:1011C000CE00FF91EF919F918F913F912F910F90C2
:1011D0000BBE0F900FBE0F901F9018951F920F928D
:1011E0000FB60F9211240BB60F922F933F938F934C
:1011F0009F93EF93FF9320915F0330916003809161
:101200006103909162032817390731F48091D1006E
:101210008F7D8093D10014C0E0916103F09162034F
:10122000E15EFC4F20818091610390916203019601
:101230008F73992790936203809361032093D60064
:10124000FF91EF919F918F913F912F910F900BBE46
:101250000F900FBE0F901F9018951F920F920FB610
:101260000F9211240BB60F922F933F938F939F935E
:10127000EF93FF932091D7023091D8028091D90249
:101280009091DA022817390731F4809131018F7D6E
:101290008093310114C0E091D902F091DA02E9564D
:1012A000FD4F20818091D9029091DA0201968F73CF
:1012B00099279093DA028093D90220933601FF9107
:1012C000EF919F918F913F912F910F900BBE0F90B7
:1012D0000FBE0F901F901895CF92DF92EF92FF9262
:1012E000CF93DF93EC016A017B01411581EE580732
:1012F00061057105F9F0EC89FD8981E090E00E8CC3
:1013000002C0880F991F0A94E2F7808360E079E0B9
:101310008DE390E0A70196010E94320B2150310924
:10132000410951095695479537952795211580E133
:10133000380798F0EC89FD89108260E874E88EE146
:1013400090E0A70196010E94320B2150310941091A
:1013500051095695479537952795E889F98930833E
:10136000EA89FB892083EE89FF89408181E090E052
:101370009C010A8C02C0220F331F0A94E2F7422B11
:101380004083EE89FF8940819C010B8C02C0220FB3
:10139000331F0A94E2F7422B4083EE89FF89408194
:1013A0009C010C8C02C0220F331F0A94E2F7422BDF
:1013B0004083EE89FF8920810D8C02C0880F991F20
:1013C0000A94E2F7809582238083DF91CF91FF908A
:1013D000EF90DF90CF900895CF9310927B02109200
:1013E0007A0288EE93E0A0E0B0E080937C029093D4
:1013F0007D02A0937E02B0937F0224E032E030931E
:1014000079022093780243E754E050938502409399
:1014100084024FE254E0509387024093860245ECE9
:1014200050E0509389024093880244EC50E050937E
:101430008B0240938A0240EC50E050938D0240931F
:101440008C0241EC50E050938F0240938E0246ECA8
:1014500050E05093910240939002C4E0C0939202F6
:10146000F3E0F0939302E7E0E093940275E0709369
:10147000950261E06093960210925C0210925B020A
:1014800080935D0290935E02A0935F02B09360022E
:1014900030935A02209359024BEE53E05093660268
:1014A0004093650247EA53E0509368024093670215
:1014B0004DEC50E050936A02409369024CEC50E0CE
:1014C00050936C0240936B0248EC50E050936E02D4
:1014D00040936D0249EC50E05093700240936F02CC
:1014E0004EEC50E05093720240937102C09373022D
:1014F000F0937402E0937502709376026093770222
:1015000010923D0210923C0280933E0290933F0263
:10151000A0934002B093410230933B0220933A02E1
:1015200043E653E050934702409346024FE153E0B5
:10153000509349024093480245ED50E050934B02CE
:1015400040934A0244ED50E050934D0240934C02C8
:1015500040ED50E050934F0240934E0241ED50E079
:10156000509351024093500246ED50E05093530285
:1015700040935202C0935402F0935502E0935602F6
:10158000709357026093580210921E0210921D022F
:1015900080931F0290932002A0932102B093220215
:1015A00030931C0220931B028BED92E09093280253
:1015B0008093270287E992E090932A028093290280
:1015C00085E391E090932C0280932B0284E391E0D9
:1015D00090932E0280932D0280E391E0909330024D
:1015E00080932F0281E391E0909332028093310245
:1015F00086E391E09093340280933302C0933502E6
:10160000F0933602E0933702709338026093390208
:10161000CF910895CF92DF92EF92FF920F931F9395
:10162000CF93DF936C01EB017A01E60EF71E00E029
:1016300010E00BC06991D601ED91FC910190F08111
:10164000E02DC6011995080F191FCE15DF0591F77A
:10165000C801DF91CF911F910F91FF90EF90DF9024
:10166000CF900895A1E21A2EAA1BBB1BFD010DC04D
:10167000AA1FBB1FEE1FFF1FA217B307E407F50742
:1016800020F0A21BB30BE40BF50B661F771F881F1E
:10169000991F1A9469F760957095809590959B01B4
:1016A000AC01BD01CF0108950790F691E02D19948A
:0416B000F894FFCFDC
:1016B400000000004C070A0BE7061607FA063A0773
:00000001FF
