:100000000C945D000C9485000C9485000C94850084
:100010000C9485000C9485000C9485000C9485004C
:100020000C9485000C9485000C9485000C9485003C
:100030000C9485000C9485000C9485000C9485002C
:100040000C947F040C9485000C94FD050C943906E7
:100050000C9485000C9485000C9485000C9485000C
:100060000C9485000C94850000000007000201003C
:100070000003040600000000000000000102040864
:100080001020408001020408102001020408102002
:10009000040404040404040402020202020203032E
:1000A0000303030300000000250028002B000000CC
:1000B0000000240027002A00F40611241FBECFEF01
:1000C000D8E0DEBFCDBF11E0A0E0B1E0ECE2FFE0A0
:1000D00002C005900D92A031B107D9F711E0A0E15F
:1000E000B1E001C01D92A23CB107E1F710E0CAEBFC
:1000F000D0E004C02297FE010E949007C83BD107C0
:10010000C9F70E9454050C9494070C9400008EBD0E
:100110000DB407FEFDCF8EB50895CF92DF92EF921A
:10012000FF926C0160E08AE10E94480460E08BE18C
:100130000E94480460E089E10E944804EE24D7FC54
:10014000E094FE2CC701B6010E94F30461E08AE14D
:100150000E94480461E08BE10E94480461E089E16B
:100160000E944804C701B601FF90EF90DF90CF9046
:100170000C94F304CF92DF92EF92FF920F931F93B0
:10018000CF93DF9380911001811118C064E670E075
:1001900087E00E94850364E670E083E00E948503A7
:1001A00064E670E085E00E94850364E670E086E026
:1001B0000E94850361E08AE10E9448048091110158
:1001C00081113AC08BE191E00E9461051816190671
:1001D0000CF072C162E370E080E090E00E94F304F2
:1001E0008BE191E00E9490057C018BE191E00E94FF
:1001F00090058C018BE191E00E949005EC018BE170
:1002000091E00E949005109210012FEFE216F10488
:1002100009F052C10F3F110509F04EC1CF3FD10582
:1002200009F04AC18F3F910509F046C181E08093F2
:10023000110160E089E12EC08BE191E00E9461052F
:10024000181619060CF038C164E670E080E090E002
:100250000E94F3048BE191E00E9490057C018BE108
:1002600091E00E9490058C018BE191E00E94900545
:10027000EC018BE191E00E9490056C018BE191E033
:100280000E949005E114F10479F481E0809310015B
:1002900060E08AE1DF91CF911F910F91FF90EF9085
:1002A000DF90CF900C94480421E0E216F10419F499
:1002B0001092100101C124E0E216F10409F06EC0B1
:1002C000809110018111F8C061E08AE10E94480428
:1002D00061E08BE10E94480461E089E10E944804EA
:1002E00064EF71E080E090E00E94F3048AEF90E018
:1002F0000E948D008AEF90E00E948D008AEF90E0CE
:100300000E948D0064E970E087E00E94850368EE3A
:1003100073E080E090E00E94F30464E670E087E020
:100320000E94850364E970E083E00E94850368EE23
:1003300073E080E090E00E94F30464E670E083E004
:100340000E94850364E970E085E00E94850368EE01
:1003500073E080E090E00E94F30464E670E085E0E2
:100360000E94850364E970E086E00E94850368EEE0
:1003700073E080E090E00E94F30464E670E086E0C1
:100380000E94850384EF91E0DF91CF911F910F913F
:10039000FF90EF90DF90CF900C948D0022E0E2165A
:1003A000F10409F067C00115110531F5C130D1051F
:1003B00081F46FEF70E08DE30E9485036FEF70E0D2
:1003C0008CE30E9485036FEF70E08AE30E9485034F
:1003D00048C0CD2B09F070C060E070E08DE30E9452
:1003E000850360E070E08CE30E94850360E070E0CC
:1003F0008AE30E9485033AC00130110569F4C130D7
:10040000D10519F46FEF70E005C0CD2B09F054C091
:1004100060E070E08DE346C00230110569F4C13040
:10042000D10519F46FEF70E005C0CD2B09F044C081
:1004300060E070E08CE336C00430110561F4C13037
:10044000D10519F46FEF70E004C0CD2BA9F560E081
:1004500070E08AE327C00330110571F5C130D10582
:1004600019F46FEF70E004C0CD2B31F560E070E05F
:100470008BE318C023E0E216F104F1F40C0D1D1D0E
:100480000C0F1D1F080F191FB80187E00E9485037C
:10049000B80183E00E948503B80185E00E948503CE
:1004A000B80186E0DF91CF911F910F91FF90EF90FF
:1004B000DF90CF900C948503DF91CF911F910F9126
:1004C000FF90EF90DF90CF9008950F931F93CF93FD
:1004D000DF931F92CDB7DEB7082F162F60E0842F71
:1004E00049830E944804802F0E948700812F0E9428
:1004F000870061E04981842F0F90DF91CF911F9198
:100500000F910C94480445E350E060E88BE60E94AC
:10051000650266E970E080E090E00E94F30445E344
:1005200050E063E08BE60E94650266E970E080E0DF
:1005300090E00E94F30445E350E060E18AE60E9407
:10054000650266E970E080E090E00E94F30445E314
:1005500050E060E089E10E94650266E970E080E0B9
:1005600090E00E94F30445E350E063E08AE10E94DA
:10057000650266E970E080E090E00E94F30445E3E4
:1005800050E060E08BE10E94650266E970E080E087
:1005900090E00E94F30445E350E060E08CE10E94AB
:1005A000650266E970E080E090E00C94F30461E09D
:1005B0008BE10E94100461E08AE10E94100461E076
:1005C00089E10E94100461E08BE10E94480461E02F
:1005D00089E10E94480461E08AE10E94480461E0E8
:1005E0008CE00E94100461E08BE00E94100461E046
:1005F00088E00E94100461E087E00E94100461E03E
:1006000086E00E94100461E083E00E94100461E033
:1006100082E00E94100461E085E00E94100461E025
:1006200088E20E94100461E088E20E94480440E8E9
:1006300055E260E070E08BE191E00E94740664E6B0
:1006400070E087E00E94850364E670E083E00E942A
:10065000850364E670E085E00E94850364E670E04F
:1006600086E00E9485030E944A0381E00E9477038E
:1006700081E00E94690380E00E94720364E670E0FA
:1006800080E090E00E94F30461E085E30E941004A2
:100690000C94830261E08DE00E94100461E08BE025
:1006A0000E94100461E08AE00E94100460E08DE086
:1006B0000E94480460E08BE00E94480461E08AE008
:1006C0000E9448048CB580618CBD8CB580648CBD63
:1006D0000895811103C08CB5806202C08CB58F7DF6
:1006E0008CBD08959CB5937F982B9CBD08952CB527
:1006F000982F93702C7F922B9CBD9DB582FB8827F1
:1007000080F99E7F982B9DBD08951F93CF93DF9313
:10071000182FEB0161E00E941004209711F460E0B3
:1007200004C0CF3FD10539F461E0812FDF91CF9133
:100730001F910C944804E12FF0E0E859FF4FE49139
:10074000E330B9F028F4E13051F0E230B1F50CC0FB
:10075000E63019F1E73049F1E43079F514C084B599
:10076000806884BDC7BD2EC084B5806284BDC8BD0D
:1007700029C080918000806880938000D093890098
:10078000C09388001FC080918000806280938000A9
:10079000D0938B00C0938A0015C08091B000806810
:1007A0008093B000C093B3000DC08091B000806210
:1007B0008093B000C093B40005C0C038D1050CF0E0
:1007C000B3CFADCFDF91CF911F910895833069F002
:1007D00028F48130A1F0823011F514C08630B1F0D8
:1007E0008730C1F08430D9F404C0809180008F77C5
:1007F00003C0809180008F7D80938000089584B530
:100800008F7702C084B58F7D84BD08958091B0003C
:100810008F7703C08091B0008F7D8093B0000895E2
:10082000CF93DF9390E0FC01E458FF4F4491FC012B
:10083000E057FF4F8491882341F190E0880F991F82
:10084000FC01E255FF4F25913491D9018C559F4F02
:10085000FC0185919491C82FD92F9FB7F8948C9162
:10086000611106C0409584238C938881842308C03D
:10087000623041F4242F209582238C938881842B2D
:10088000888302C0842B8C939FBFDF91CF91089502
:100890000F931F93CF93DF931F92CDB7DEB7282F0F
:1008A00030E0F901E859FF4F8491F901E458FF4F16
:1008B0001491F901E057FF4F04910023D1F08823F0
:1008C00021F069830E94E6036981E02FF0E0EE0FDA
:1008D000FF1FEC55FF4F85919491DC019FB7F89471
:1008E0008C91611103C01095812301C0812B8C93E1
:1008F0009FBF0F90DF91CF911F910F9108951F928D
:100900000F920FB60F9211242F933F938F939F93C3
:10091000AF93BF938091120190911301A0911401A4
:10092000B091150130911A01232F2D5F2D3720F43E
:100930000196A11DB11D05C0232F2A570296A11DA6
:10094000B11D20931A018093120190931301A0937B
:100950001401B09315018091160190911701A09197
:100960001801B09119010196A11DB11D80931601C6
:1009700090931701A0931801B0931901BF91AF9103
:100980009F918F913F912F910F900FBE0F901F90CD
:1009900018950F931F939FB7F8940091160110912B
:1009A0001701209118013091190186B5A89B06C046
:1009B0008F3F21F00F5F1F4F2F4F3F4F9FBF322FB1
:1009C000212F102F0027080F111D211D311D42E07E
:1009D000000F111F221F331F4A95D1F7B801C9011B
:1009E0001F910F910895CF92DF92EF92FF92CF93D4
:1009F000DF936B017C010E94C904EB010EC00E94D1
:100A0000C9046C1B7D0B683E734038F081E0C81A46
:100A1000D108E108F108C851DC4FC114D104E10448
:100A2000F10469F7DF91CF91FF90EF90DF90CF90C5
:100A30000895789484B5826084BD84B5816084BD56
:100A400085B5826085BD85B5816085BDEEE6F0E047
:100A5000808181608083E1E8F0E0108280818260A3
:100A60008083808181608083E0E8F0E08081816024
:100A70008083E1EBF0E0808184608083E0EBF0E054
:100A8000808181608083EAE7F0E0808184608083F8
:100A900080818260808380818160808380818068A2
:100AA00080831092C10008950E9419050E94D70208
:100AB000C0E3D6E00E94BA002097E1F30E9430061E
:100AC000F9CFFC0184859585FC01E05CFF4F208116
:100AD0003181FC01EE5BFF4F80819181281B390B36
:100AE0002F733327C9010895FC0184859585FC0186
:100AF000E05CFF4F40815181FC01EE5BFF4F2081A4
:100B000031814217530741F00190F081E02DE80F49
:100B1000F91F208130E002C02FEF3FEFC901089597
:100B2000FC0184859585FC01E05CFF4F408151818B
:100B3000FC01EE5BFF4F208131814217530781F0AA
:100B4000A081B181A80FB91F8C91208131812F5FC5
:100B50003F4F2F73332731832083282F30E002C08B
:100B60002FEF3FEFC9010895FC0186859785FC01B1
:100B7000E05CFF4FDC01AE5BBF4F408151812D91A6
:100B80003C91119742175307C1F70895CF93DF9314
:100B9000FC0186859785DC01A05CBF4F2D913C91BF
:100BA00011972F5F3F4F2F733327EC01CE5BDF4F41
:100BB0004881598124173507D9F30D90BC91A02D98
:100BC000A80FB91F6C93A685B785A05CBF4F11967F
:100BD0003C932E93A689B7892C9181E090E0058CF7
:100BE00002C0880F991F0A94E2F7282B2C9381E00A
:100BF00090E0DF91CF91089508951F920F920FB664
:100C00000F9211242F933F934F938F939F93EF93C2
:100C1000FF934091C6008091BE019091BF01019663
:100C20008F7399272091C0013091C10182179307DA
:100C300059F0E091BE01F091BF01E258FE4F4083B0
:100C40009093BF018093BE01FF91EF919F918F918F
:100C50004F913F912F910F900FBE0F901F901895BD
:100C60008BE191E00E946105892B11F00C94FC0549
:100C700008951F920F920FB60F9211242F933F9356
:100C80008F939F93EF93FF9320917A0130917B0193
:100C900080917C0190917D012817390731F4809172
:100CA000C1008F7D8093C10014C0E0917C01F09160
:100CB0007D01E65CFE4F208180917C0190917D0159
:100CC00001968F73992790937D0180937C012093E7
:100CD000C600FF91EF919F918F913F912F910F90BF
:100CE0000FBE0F901F901895CF92DF92EF92FF9258
:100CF000CF93DF93EC016A017B01411581EE580728
:100D000061057105F9F0EC89FD8981E090E00E8CB8
:100D100002C0880F991F0A94E2F7808360E079E0AF
:100D20008DE390E0A70196010E946C0721503109E4
:100D3000410951095695479537952795211580E129
:100D4000380798F0EC89FD89108260E874E88EE13C
:100D500090E0A70196010E946C07215031094109DA
:100D600051095695479537952795E889F989308334
:100D7000EA89FB892083EE89FF89408181E090E048
:100D80009C010A8C02C0220F331F0A94E2F7422B07
:100D90004083EE89FF8940819C010B8C02C0220FA9
:100DA000331F0A94E2F7422B4083EE89FF8940818A
:100DB0009C010C8C02C0220F331F0A94E2F7422BD5
:100DC0004083EE89FF8920810D8C02C0880F991F16
:100DD0000A94E2F7809582238083DF91CF91FF9080
:100DE000EF90DF90CF90089510921E0110921D0198
:100DF00088EE93E0A0E0B0E080931F019093200183
:100E0000A0932101B093220184E091E090931C0112
:100E100080931B018EE791E0909328018093270136
:100E20008AE391E090932A018093290185EC90E078
:100E300090932C0180932B0184EC90E090932E01F1
:100E400080932D0180EC90E09093300180932F01EE
:100E500081EC90E0909332018093310186EC90E038
:100E6000909334018093330184E08093350183E0D3
:100E70008093360187E08093370185E080933801C5
:100E800081E0809339010895CF92DF92EF92FF9233
:100E90000F931F93CF93DF936C01EB017A01E60E62
:100EA000F71E00E010E00BC06991D601ED91FC91B6
:100EB0000190F081E02DC6010995080F191FCE158C
:100EC000DF0591F7C801DF91CF911F910F91FF903E
:100ED000EF90DF90CF900895A1E21A2EAA1BBB1BC2
:100EE000FD010DC0AA1FBB1FEE1FFF1FA217B307F6
:100EF000E407F50720F0A21BB30BE40BF50B661F0C
:100F0000771F881F991F1A9469F7609570958095CF
:100F100090959B01AC01BD01CF010895EE0FFF1F1D
:0C0F20000590F491E02D0994F894FFCFA7
:100F2C0000000000C6054407610590057405B40572
:00000001FF
